{
  "contractName": "Agriculture",
  "abi": [
    {
      "inputs": [],
      "stateMutability": "nonpayable",
      "type": "constructor"
    },
    {
      "anonymous": false,
      "inputs": [
        {
          "indexed": false,
          "internalType": "address",
          "name": "participant",
          "type": "address"
        },
        {
          "indexed": false,
          "internalType": "enum StageType",
          "name": "stage",
          "type": "uint8"
        }
      ],
      "name": "BalanceInitialized",
      "type": "event"
    },
    {
      "anonymous": false,
      "inputs": [
        {
          "indexed": false,
          "internalType": "address",
          "name": "sender",
          "type": "address"
        },
        {
          "indexed": false,
          "internalType": "address",
          "name": "reciever",
          "type": "address"
        },
        {
          "indexed": false,
          "internalType": "uint256",
          "name": "amount",
          "type": "uint256"
        },
        {
          "indexed": false,
          "internalType": "enum StageType",
          "name": "start_stage",
          "type": "uint8"
        },
        {
          "indexed": false,
          "internalType": "enum StageType",
          "name": "end_stage",
          "type": "uint8"
        }
      ],
      "name": "TransferSeed",
      "type": "event"
    },
    {
      "inputs": [
        {
          "internalType": "address",
          "name": "",
          "type": "address"
        }
      ],
      "name": "balances",
      "outputs": [
        {
          "internalType": "enum StageType",
          "name": "stage",
          "type": "uint8"
        },
        {
          "internalType": "uint256",
          "name": "count",
          "type": "uint256"
        }
      ],
      "stateMutability": "view",
      "type": "function"
    },
    {
      "inputs": [],
      "name": "reciever",
      "outputs": [
        {
          "internalType": "address",
          "name": "",
          "type": "address"
        }
      ],
      "stateMutability": "view",
      "type": "function"
    },
    {
      "inputs": [],
      "name": "sender",
      "outputs": [
        {
          "internalType": "address",
          "name": "",
          "type": "address"
        }
      ],
      "stateMutability": "view",
      "type": "function"
    },
    {
      "inputs": [
        {
          "internalType": "address",
          "name": "participant",
          "type": "address"
        },
        {
          "internalType": "enum StageType",
          "name": "stage",
          "type": "uint8"
        }
      ],
      "name": "InitBalance",
      "outputs": [],
      "stateMutability": "nonpayable",
      "type": "function"
    },
    {
      "inputs": [
        {
          "internalType": "address",
          "name": "participant",
          "type": "address"
        },
        {
          "internalType": "enum StageType",
          "name": "stage",
          "type": "uint8"
        },
        {
          "internalType": "uint256",
          "name": "amount",
          "type": "uint256"
        }
      ],
      "name": "SetBalance",
      "outputs": [],
      "stateMutability": "nonpayable",
      "type": "function"
    },
    {
      "inputs": [
        {
          "internalType": "address",
          "name": "participant",
          "type": "address"
        }
      ],
      "name": "GetBalance",
      "outputs": [
        {
          "components": [
            {
              "internalType": "enum StageType",
              "name": "stage",
              "type": "uint8"
            },
            {
              "internalType": "uint256",
              "name": "count",
              "type": "uint256"
            }
          ],
          "internalType": "struct Seed",
          "name": "",
          "type": "tuple"
        }
      ],
      "stateMutability": "nonpayable",
      "type": "function"
    },
    {
      "inputs": [
        {
          "internalType": "address",
          "name": "participant",
          "type": "address"
        }
      ],
      "name": "GetBalance2",
      "outputs": [
        {
          "internalType": "enum StageType",
          "name": "",
          "type": "uint8"
        },
        {
          "internalType": "uint256",
          "name": "",
          "type": "uint256"
        }
      ],
      "stateMutability": "nonpayable",
      "type": "function"
    },
    {
      "inputs": [
        {
          "internalType": "address",
          "name": "sender",
          "type": "address"
        },
        {
          "internalType": "address",
          "name": "reciever",
          "type": "address"
        },
        {
          "internalType": "uint256",
          "name": "amount",
          "type": "uint256"
        }
      ],
      "name": "Transfer",
      "outputs": [],
      "stateMutability": "nonpayable",
      "type": "function"
    }
  ],
  "bytecode": "0x608060405234801561001057600080fd5b50611066806100206000396000f3fe608060405234801561001057600080fd5b50600436106100885760003560e01c806367e404ce1161005b57806367e404ce1461013b578063d07056b614610159578063ddf252ad14610175578063f4b0b7561461019157610088565b80630a8ec5a01461008d57806327e235e3146100be57806343e2e504146100ef578063631245071461011f575b600080fd5b6100a760048036038101906100a291906109f3565b6101af565b6040516100b5929190610ab0565b60405180910390f35b6100d860048036038101906100d391906109f3565b610259565b6040516100e6929190610ab0565b60405180910390f35b610109600480360381019061010491906109f3565b61028a565b6040516101169190610b26565b60405180910390f35b61013960048036038101906101349190610b92565b610328565b005b61014361048a565b6040516101509190610bf4565b60405180910390f35b610173600480360381019061016e9190610c0f565b6104ae565b005b61018f600480360381019061018a9190610c4f565b610615565b005b61019961093e565b6040516101a69190610bf4565b60405180910390f35b6000806000600260008573ffffffffffffffffffffffffffffffffffffffff1673ffffffffffffffffffffffffffffffffffffffff1681526020019081526020016000206040518060400160405290816000820160009054906101000a900460ff16600681111561022357610222610a20565b5b600681111561023557610234610a20565b5b81526020016001820154815250509050806000015181602001519250925050915091565b60026020528060005260406000206000915090508060000160009054906101000a900460ff16908060010154905082565b610292610964565b600260008373ffffffffffffffffffffffffffffffffffffffff1673ffffffffffffffffffffffffffffffffffffffff1681526020019081526020016000206040518060400160405290816000820160009054906101000a900460ff16600681111561030157610300610a20565b5b600681111561031357610312610a20565b5b81526020016001820154815250509050919050565b81600681111561033b5761033a610a20565b5b600260008573ffffffffffffffffffffffffffffffffffffffff1673ffffffffffffffffffffffffffffffffffffffff16815260200190815260200160002060000160009054906101000a900460ff16600681111561039d5761039c610a20565b5b0361044a5760405180604001604052808360068111156103c0576103bf610a20565b5b815260200182815250600260008573ffffffffffffffffffffffffffffffffffffffff1673ffffffffffffffffffffffffffffffffffffffff16815260200190815260200160002060008201518160000160006101000a81548160ff0219169083600681111561043357610432610a20565b5b021790555060208201518160010155905050610485565b6040517f08c379a000000000000000000000000000000000000000000000000000000000815260040161047c90610d25565b60405180910390fd5b505050565b60008054906101000a900473ffffffffffffffffffffffffffffffffffffffff1681565b6000600260008473ffffffffffffffffffffffffffffffffffffffff1673ffffffffffffffffffffffffffffffffffffffff168152602001908152602001600020600101541115610534576040517f08c379a000000000000000000000000000000000000000000000000000000000815260040161052b90610db7565b60405180910390fd5b604051806040016040528082600681111561055257610551610a20565b5b81526020016000815250600260008473ffffffffffffffffffffffffffffffffffffffff1673ffffffffffffffffffffffffffffffffffffffff16815260200190815260200160002060008201518160000160006101000a81548160ff021916908360068111156105c6576105c5610a20565b5b0217905550602082015181600101559050507f1dafe74582a065f2933513fbfafc0d21dbdb85c8584c1c6c2d8ab31efc190c4c8282604051610609929190610dd7565b60405180910390a15050565b80600260008573ffffffffffffffffffffffffffffffffffffffff1673ffffffffffffffffffffffffffffffffffffffff16815260200190815260200160002060010154101561069a576040517f08c379a000000000000000000000000000000000000000000000000000000000815260040161069190610e72565b60405180910390fd5b6001600260008473ffffffffffffffffffffffffffffffffffffffff1673ffffffffffffffffffffffffffffffffffffffff16815260200190815260200160002060000160009054906101000a900460ff1660068111156106fe576106fd610a20565b5b6107089190610ec1565b600260008573ffffffffffffffffffffffffffffffffffffffff1673ffffffffffffffffffffffffffffffffffffffff16815260200190815260200160002060000160009054906101000a900460ff16600681111561076a57610769610a20565b5b146107aa576040517f08c379a00000000000000000000000000000000000000000000000000000000081526004016107a190610f67565b60405180910390fd5b80600260008573ffffffffffffffffffffffffffffffffffffffff1673ffffffffffffffffffffffffffffffffffffffff16815260200190815260200160002060010160008282546107fc9190610ec1565b9250508190555080600260008473ffffffffffffffffffffffffffffffffffffffff1673ffffffffffffffffffffffffffffffffffffffff16815260200190815260200160002060010160008282546108559190610f87565b925050819055507f24f722d478651b165256235d54310bb89db3d9531aea94443a62725d6cf66b38838383600260008873ffffffffffffffffffffffffffffffffffffffff1673ffffffffffffffffffffffffffffffffffffffff16815260200190815260200160002060000160009054906101000a900460ff16600260008873ffffffffffffffffffffffffffffffffffffffff1673ffffffffffffffffffffffffffffffffffffffff16815260200190815260200160002060000160009054906101000a900460ff16604051610931959493929190610fdd565b60405180910390a1505050565b600160009054906101000a900473ffffffffffffffffffffffffffffffffffffffff1681565b60405180604001604052806000600681111561098357610982610a20565b5b8152602001600081525090565b600080fd5b600073ffffffffffffffffffffffffffffffffffffffff82169050919050565b60006109c082610995565b9050919050565b6109d0816109b5565b81146109db57600080fd5b50565b6000813590506109ed816109c7565b92915050565b600060208284031215610a0957610a08610990565b5b6000610a17848285016109de565b91505092915050565b7f4e487b7100000000000000000000000000000000000000000000000000000000600052602160045260246000fd5b60078110610a6057610a5f610a20565b5b50565b6000819050610a7182610a4f565b919050565b6000610a8182610a63565b9050919050565b610a9181610a76565b82525050565b6000819050919050565b610aaa81610a97565b82525050565b6000604082019050610ac56000830185610a88565b610ad26020830184610aa1565b9392505050565b610ae281610a76565b82525050565b610af181610a97565b82525050565b604082016000820151610b0d6000850182610ad9565b506020820151610b206020850182610ae8565b50505050565b6000604082019050610b3b6000830184610af7565b92915050565b60078110610b4e57600080fd5b50565b600081359050610b6081610b41565b92915050565b610b6f81610a97565b8114610b7a57600080fd5b50565b600081359050610b8c81610b66565b92915050565b600080600060608486031215610bab57610baa610990565b5b6000610bb9868287016109de565b9350506020610bca86828701610b51565b9250506040610bdb86828701610b7d565b9150509250925092565b610bee816109b5565b82525050565b6000602082019050610c096000830184610be5565b92915050565b60008060408385031215610c2657610c25610990565b5b6000610c34858286016109de565b9250506020610c4585828601610b51565b9150509250929050565b600080600060608486031215610c6857610c67610990565b5b6000610c76868287016109de565b9350506020610c87868287016109de565b9250506040610c9886828701610b7d565b9150509250925092565b600082825260208201905092915050565b7f42616c616e636520636f6e7461696e7320616e6f74686572207365656420747960008201527f7065210000000000000000000000000000000000000000000000000000000000602082015250565b6000610d0f602383610ca2565b9150610d1a82610cb3565b604082019050919050565b60006020820190508181036000830152610d3e81610d02565b9050919050565b7f596f752063616e7427206368616e6765206e6f207a65726f2062616c616e636560008201527f2100000000000000000000000000000000000000000000000000000000000000602082015250565b6000610da1602183610ca2565b9150610dac82610d45565b604082019050919050565b60006020820190508181036000830152610dd081610d94565b9050919050565b6000604082019050610dec6000830185610be5565b610df96020830184610a88565b9392505050565b7f4e6f7420656e6f75676820616d6f756e7420666f72207472616e73666572696e60008201527f6721000000000000000000000000000000000000000000000000000000000000602082015250565b6000610e5c602283610ca2565b9150610e6782610e00565b604082019050919050565b60006020820190508181036000830152610e8b81610e4f565b9050919050565b7f4e487b7100000000000000000000000000000000000000000000000000000000600052601160045260246000fd5b6000610ecc82610a97565b9150610ed783610a97565b925082821015610eea57610ee9610e92565b5b828203905092915050565b7f596f752063616e742073656e64207365656473206f6e6c79206f6e207468652060008201527f6e65787420737461676521000000000000000000000000000000000000000000602082015250565b6000610f51602b83610ca2565b9150610f5c82610ef5565b604082019050919050565b60006020820190508181036000830152610f8081610f44565b9050919050565b6000610f9282610a97565b9150610f9d83610a97565b9250827fffffffffffffffffffffffffffffffffffffffffffffffffffffffffffffffff03821115610fd257610fd1610e92565b5b828201905092915050565b600060a082019050610ff26000830188610be5565b610fff6020830187610be5565b61100c6040830186610aa1565b6110196060830185610a88565b6110266080830184610a88565b969550505050505056fea264697066735822122055554b42ba98685b9ebf4a690e08fe4086082925f53aab6845c3fe03dc08c39f64736f6c634300080d0033",
  "immutableReferences": {},
  "source": "// SPDX-License-Identifier: MIT\npragma solidity >=0.4.22 <0.9.0;\n//  \nenum StageType {\n    A1,\n    A2,\n    A3,\n    A4,\n    A5,\n    A6,\n    A7\n}\n\nstruct Seed {\n    StageType stage;\n    uint256 count;\n}\n\ncontract Agriculture {\n    address public sender;\n    address public reciever;\n    mapping(address => Seed) public balances;\n    event BalanceInitialized(address participant, StageType stage);\n    event TransferSeed(\n        address sender,\n        address reciever,\n        uint256 amount,\n        StageType start_stage,\n        StageType end_stage\n    );\n\n    constructor() {}\n\n    function InitBalance(address participant, StageType stage) public {\n        if (balances[participant].count > 0)\n            revert(\"You cant' change no zero balance!\");\n        else {\n            balances[participant] = Seed(stage, 0);\n            emit BalanceInitialized(participant, stage);\n        }\n    }\n\n    function SetBalance(\n        address participant,\n        StageType stage,\n        uint256 amount\n    ) public {\n        if (balances[participant].stage == stage)\n            balances[participant] = Seed(stage, amount);\n        else revert(\"Balance contains another seed type!\");\n    }\n\n    function GetBalance(address participant) public returns (Seed memory) {\n        return balances[participant];\n    }\n\n    function GetBalance2(address participant)\n        public\n        returns (StageType, uint256)\n    {\n        Seed memory s = balances[participant];\n        return (s.stage, s.count);\n    }\n\n    function Transfer(\n        address sender,\n        address reciever,\n        uint256 amount\n    ) public {\n        if (balances[sender].count < amount)\n            revert(\"Not enough amount for transfering!\");\n        if (\n            uint256(balances[sender].stage) !=\n            uint256(balances[reciever].stage) - 1\n        ) revert(\"You cant send seeds only on the next stage!\");\n        balances[sender].count -= amount;\n        balances[reciever].count += amount;\n        emit TransferSeed(\n            sender,\n            reciever,\n            amount,\n            balances[sender].stage,\n            balances[reciever].stage\n        );\n    }\n}\n",
  "sourcePath": "/Users/maksimalsevskih/Desktop/TestApp/blockchain/contracts/contracts/Agriculture.sol",
  "compiler": {
    "name": "solc",
    "version": "0.8.13+commit.abaa5c0e.Emscripten.clang"
  },
  "schemaVersion": "3.4.7",
  "updatedAt": "2022-04-24T13:28:28.786Z",
  "devdoc": {
    "kind": "dev",
    "methods": {},
    "version": 1
  },
  "userdoc": {
    "kind": "user",
    "methods": {},
    "version": 1
  }
}